S012000054616D61676F746368692E7372656311
S113000045C0000060C000005EC000005CC000008D
S11300105AC0000058C0000056C0000054C0000080
S113002052C0000050C000004EC000004CC0000090
S11300304AC0000048C0000046C0000044C00000A0
S113004042C0000040C000003EC000003CC00000B0
S11300503AC0000038C0000036C0000034C00000C0
S113006032C0000030C000002EC000002CC00000D0
S11300702AC0000028C0000026C0000024C00000E0
S113008022C0000020C000001EC0000011241FBEBA
S1130090CFEFD0E1DEBFCDBF11E0A0E0B1E0E0E7FB
S11300A0F4E000E00BBF02C007900D92A832B10744
S11300B0D9F721E0A8E2B1E001C01D92AA32B2074B
S11300C0E1F798D1D3C19CCF0F931F93CF93DF93C4
S11300D080910A0190910B01181619069CF400E016
S11300E011E0C0E0D0E0F80181918F0160E070E0A0
S11300F090E00AD1219680910A0190910B01C817D2
S1130100D9078CF3DF91CF911F910F910895DCCF24
S113011008956EE170E08EE090E0F6D061E270E068
S113012082E090E0F1D06AEC70E084E090E0ECD002
S113013060ED70E086E090E0E7D060ED70E088E08C
S113014090E0E2D06AEC70E08AE090E0DDD061E219
S113015070E08CE090E0D8D06EE170E080E090E058
S1130160D3C008956EE170E08EE090E0CDD061E2FE
S113017070E082E090E0C8D062ED70E084E090E04E
S1130180C3D068EC70E086E090E0BED068EC70E02C
S113019088E090E0B9D062ED70E08AE090E0B4D0FD
S11301A061E270E08CE090E0AFD06EE170E080E05E
S11301B090E0AAC008956EE170E08EE090E0A4D0D3
S11301C061E270E082E090E09FD06AEC70E084E04D
S11301D090E09AD068EC70E086E090E095D068EC0E
S11301E070E088E090E090D06AEC70E08AE090E003
S11301F08BD061E270E08CE090E086D06EE170E03C
S113020080E090E081C008958091280190912901B7
S113021068EE73E004D1892B79F480910801909100
S113022009019C01215031092E31310528F405972B
S1130230909309018093080180910801909109012C
S113024045970A9728F465DFB1D08CE091E0A0D0FF
S113025080910801909109010B970A9728F4ABDF6C
S1130260A5D086E191E094D0809108019091090194
S11302700197099728F476DF99D080E291E088C04D
S1130280089584EA80937400E4E7F0E08081882391
S1130290ECF708958093730084E880937400E4E796
S11302A0F0E080818823ECF708951F93CF93DF93C8
S11302B01092710080E280937000E3DF80EE90E0A2
S11302C0E9DF81E290E0E6DFC4E7D0E014E91883D7
S11302D0D8DF80EE90E0DEDF80EA90E0DBDF188399
S11302E0D0DF80EE90E0D6DF83EE90E0D3DF18839A
S11302F0C8DF80EE90E0CEDF81E890E0CBDF1883AA
S1130300DF91CF911F910895CF93DF93D82FC62FFC
S1130310B8DF80EEBFDF8D2FBDDF8C2FBBDF84E91C
S113032080937400DF91CF910895AB9A89EF90E0A8
S11303300197F1F700C00000AB9889EF90E00197B6
S1130340F1F700C000000895CF938FEF84BB15BA76
S1130350C0E2C5BBEADFC5BBE8DF80E885BBE5DFFB
S113036015BAE3DF80EF85BBE0DF15BADEDF80E698
S113037085BBDBDFCF910895CF93C82F85BBAA9AA5
S1130380D4DFC295C07FC5BBAA9ACFDFCF910895B1
S1130390CF93DF93EC018881882329F02196ECDF49
S11303A089918111FCCFDF91CF910895CF9381E0A2
S11303B085BBBBDF82E085BBB8DFCEE1C5BBB5DF63
S11303C0C5BBB3DFC5BBB1DFC5BBAFDFC5BBADDFED
S11303D0C5BBABDFCF91089568DF99DEB5DF8FEF42
S11303E08ABBEAE6F0E080818160808389B781601E
S11303F089BF0895F1DFCEE1D0E006DFA0988091B7
S11304002801909129010196909329018093280154
S1130410989BF3CFD0930901C0930801EECF97FBCB
S1130420072E16F4009406D077FD08D00BD007FCF5
S113043005D03EF4909581959F4F089570956195F0
S11304407F4F0895AA1BBB1B51E107C0AA1FBB1F06
S1130450A617B70710F0A61BB70B881F991F5A954C
S1130460A9F780959095BC01CD010895F894FFCF2C
S113047000020406080A0C0E1E000800496D2068DC
S1130480617070792100496D205570736574210085
S10B0490496D20736164210031
S9030000FC
